{
  "contractName": "lotery",
  "abi": [
    {
      "constant": true,
      "inputs": [
        {
          "internalType": "uint256",
          "name": "",
          "type": "uint256"
        }
      ],
      "name": "user",
      "outputs": [
        {
          "internalType": "address",
          "name": "",
          "type": "address"
        }
      ],
      "payable": false,
      "stateMutability": "view",
      "type": "function"
    },
    {
      "constant": false,
      "inputs": [],
      "name": "pay",
      "outputs": [],
      "payable": true,
      "stateMutability": "payable",
      "type": "function"
    },
    {
      "constant": true,
      "inputs": [],
      "name": "getBalance",
      "outputs": [
        {
          "internalType": "uint256",
          "name": "",
          "type": "uint256"
        }
      ],
      "payable": false,
      "stateMutability": "view",
      "type": "function"
    },
    {
      "constant": true,
      "inputs": [],
      "name": "random",
      "outputs": [
        {
          "internalType": "uint256",
          "name": "",
          "type": "uint256"
        }
      ],
      "payable": false,
      "stateMutability": "view",
      "type": "function"
    },
    {
      "constant": false,
      "inputs": [],
      "name": "winner",
      "outputs": [],
      "payable": false,
      "stateMutability": "nonpayable",
      "type": "function"
    },
    {
      "constant": true,
      "inputs": [],
      "name": "getuser",
      "outputs": [
        {
          "internalType": "address[]",
          "name": "",
          "type": "address[]"
        }
      ],
      "payable": false,
      "stateMutability": "view",
      "type": "function"
    }
  ],
  "bytecode": "0x6080604052336000806101000a81548173ffffffffffffffffffffffffffffffffffffffff021916908373ffffffffffffffffffffffffffffffffffffffff16021790555034801561005057600080fd5b50610445806100606000396000f3fe6080604052600436106100555760003560e01c806312065fe01461005a5780631b9265b814610085578063553275be1461008f5780635ec01e4d1461010a578063cff8fd6914610135578063dfbf53ae146101a1575b600080fd5b34801561006657600080fd5b5061006f6101b8565b6040518082815260200191505060405180910390f35b61008d610219565b005b34801561009b57600080fd5b506100c8600480360360208110156100b257600080fd5b81019080803590602001909291905050506102fe565b604051808273ffffffffffffffffffffffffffffffffffffffff1673ffffffffffffffffffffffffffffffffffffffff16815260200191505060405180910390f35b34801561011657600080fd5b5061011f61033a565b6040518082815260200191505060405180910390f35b34801561014157600080fd5b5061014a610380565b6040518080602001828103825283818151815260200191508051906020019060200280838360005b8381101561018d578082015181840152602081019050610172565b505050509050019250505060405180910390f35b3480156101ad57600080fd5b506101b661040e565b005b60008060009054906101000a900473ffffffffffffffffffffffffffffffffffffffff1673ffffffffffffffffffffffffffffffffffffffff163373ffffffffffffffffffffffffffffffffffffffff161461021357600080fd5b47905090565b670de0b6b3a76400003414610296576040517f08c379a000000000000000000000000000000000000000000000000000000000815260040180806020018281038252600f8152602001807f736f7272792075206e6f7420706179000000000000000000000000000000000081525060200191505060405180910390fd5b60013390806001815401808255809150509060018203906000526020600020016000909192909190916101000a81548173ffffffffffffffffffffffffffffffffffffffff021916908373ffffffffffffffffffffffffffffffffffffffff16021790555050565b6001818154811061030b57fe5b906000526020600020016000915054906101000a900473ffffffffffffffffffffffffffffffffffffffff1681565b600044426001805490506040516020018084815260200183815260200182815260200193505050506040516020818303038152906040528051906020012060001c905090565b6060600180548060200260200160405190810160405280929190818152602001828054801561040457602002820191906000526020600020905b8160009054906101000a900473ffffffffffffffffffffffffffffffffffffffff1673ffffffffffffffffffffffffffffffffffffffff16815260200190600101908083116103ba575b5050505050905090565b56fea265627a7a72315820e247dc18f86d1aa214e5f203b7d855b4c15a8597bf02c9aabb21aa68cd17f6be64736f6c63430005100032",
  "source": "// SPDX-License-Identifier: MIT\r\npragma solidity >=0.4.22 <0.9.0;\r\n\r\ncontract lotery{\r\n    address manager=msg.sender;\r\n    address [] public  user;\r\n    \r\nfunction pay() public payable{\r\n    require(msg.value== 1 ether,\"sorry u not pay\");\r\n    user.push(msg.sender);\r\n    \r\n\r\n}\r\n\r\nfunction getBalance() public view returns(uint){\r\n    require(msg.sender==manager);\r\n    return address(this).balance;\r\n    \r\n  \r\n}\r\n\r\nfunction random()  public view returns(uint){\r\n    return uint(keccak256(abi.encodePacked(block.difficulty, block.timestamp, user.length)));\r\n        }\r\nfunction winner() public{\r\n    // uint d=random();\r\n    // uint p=d%user.length;\r\n    // // address cp=user[p];\r\n    // cp.transfer(getBalance());\r\n   \r\n    // user=new address[](0);\r\n}\r\n\r\n\r\nfunction getuser() public view returns(address[] memory){\r\n    return user;\r\n  \r\n}\r\n\r\n\r\n\r\n}",
  "sourcePath": "C:\\Users\\John\\Documents\\anjum\\contracts\\Fund.sol",
  "compiler": {
    "name": "solc",
    "version": "0.5.16+commit.9c3226ce.Emscripten.clang"
  },
  "schemaVersion": "3.4.11",
  "updatedAt": "2023-01-08T06:23:26.684Z",
  "devdoc": {
    "methods": {}
  },
  "userdoc": {
    "methods": {}
  }
}