{
  "contractName": "Lottery",
  "abi": [
    {
      "constant": true,
      "inputs": [
        {
          "internalType": "uint256",
          "name": "",
          "type": "uint256"
        }
      ],
      "name": "user",
      "outputs": [
        {
          "internalType": "address",
          "name": "",
          "type": "address"
        }
      ],
      "payable": false,
      "stateMutability": "view",
      "type": "function"
    },
    {
      "constant": false,
      "inputs": [],
      "name": "pay",
      "outputs": [],
      "payable": true,
      "stateMutability": "payable",
      "type": "function"
    },
    {
      "constant": true,
      "inputs": [],
      "name": "getBalance",
      "outputs": [
        {
          "internalType": "uint256",
          "name": "",
          "type": "uint256"
        }
      ],
      "payable": false,
      "stateMutability": "view",
      "type": "function"
    },
    {
      "constant": true,
      "inputs": [],
      "name": "random",
      "outputs": [
        {
          "internalType": "uint256",
          "name": "",
          "type": "uint256"
        }
      ],
      "payable": false,
      "stateMutability": "view",
      "type": "function"
    },
    {
      "constant": false,
      "inputs": [],
      "name": "winner",
      "outputs": [],
      "payable": true,
      "stateMutability": "payable",
      "type": "function"
    },
    {
      "constant": true,
      "inputs": [],
      "name": "getuser",
      "outputs": [
        {
          "internalType": "address[]",
          "name": "",
          "type": "address[]"
        }
      ],
      "payable": false,
      "stateMutability": "view",
      "type": "function"
    }
  ],
  "bytecode": "0x6080604052336000806101000a81548173ffffffffffffffffffffffffffffffffffffffff021916908373ffffffffffffffffffffffffffffffffffffffff16021790555034801561005057600080fd5b50610590806100606000396000f3fe6080604052600436106100555760003560e01c806312065fe01461005a5780631b9265b814610085578063553275be1461008f5780635ec01e4d1461010a578063cff8fd6914610135578063dfbf53ae146101a1575b600080fd5b34801561006657600080fd5b5061006f6101ab565b6040518082815260200191505060405180910390f35b61008d61020c565b005b34801561009b57600080fd5b506100c8600480360360208110156100b257600080fd5b81019080803590602001909291905050506102f1565b604051808273ffffffffffffffffffffffffffffffffffffffff1673ffffffffffffffffffffffffffffffffffffffff16815260200191505060405180910390f35b34801561011657600080fd5b5061011f61032d565b6040518082815260200191505060405180910390f35b34801561014157600080fd5b5061014a610373565b6040518080602001828103825283818151815260200191508051906020019060200280838360005b8381101561018d578082015181840152602081019050610172565b505050509050019250505060405180910390f35b6101a9610401565b005b60008060009054906101000a900473ffffffffffffffffffffffffffffffffffffffff1673ffffffffffffffffffffffffffffffffffffffff163373ffffffffffffffffffffffffffffffffffffffff161461020657600080fd5b47905090565b670de0b6b3a76400003414610289576040517f08c379a000000000000000000000000000000000000000000000000000000000815260040180806020018281038252600f8152602001807f736f7272792075206e6f7420706179000000000000000000000000000000000081525060200191505060405180910390fd5b60013390806001815401808255809150509060018203906000526020600020016000909192909190916101000a81548173ffffffffffffffffffffffffffffffffffffffff021916908373ffffffffffffffffffffffffffffffffffffffff16021790555050565b600181815481106102fe57fe5b906000526020600020016000915054906101000a900473ffffffffffffffffffffffffffffffffffffffff1681565b600044426001805490506040516020018084815260200183815260200182815260200193505050506040516020818303038152906040528051906020012060001c905090565b606060018054806020026020016040519081016040528092919081815260200182805480156103f757602002820191906000526020600020905b8160009054906101000a900473ffffffffffffffffffffffffffffffffffffffff1673ffffffffffffffffffffffffffffffffffffffff16815260200190600101908083116103ad575b5050505050905090565b600061040b61032d565b90506000600180549050828161041d57fe5b0690506001818154811061042d57fe5b9060005260206000200160009054906101000a90505060006040519080825280602002602001820160405280156104735781602001602082028038833980820191505090505b506001908051906020019061048992919061048e565b505050565b828054828255906000526020600020908101928215610507579160200282015b828111156105065782518260006101000a81548173ffffffffffffffffffffffffffffffffffffffff021916908373ffffffffffffffffffffffffffffffffffffffff160217905550916020019190600101906104ae565b5b5090506105149190610518565b5090565b61055891905b8082111561055457600081816101000a81549073ffffffffffffffffffffffffffffffffffffffff02191690555060010161051e565b5090565b9056fea265627a7a72315820196f92d7f054c1c41ca0c1fca046d20b7656e3ff21fd58d9f098769288a367e864736f6c63430005100032",
  "source": "// SPDX-License-Identifier: MIT\npragma solidity >=0.5.0 <0.9.0;\n\ncontract Lottery {\n\n\n    address manager=msg.sender;\n    address [] public  user;\n    \nfunction pay() public payable{\n    require(msg.value== 1 ether,\"sorry u not pay\");\n \n    user.push(msg.sender);\n\n}\n\nfunction getBalance() public view returns(uint){\n    require(msg.sender==manager);\n    return address(this).balance;\n  \n}\n\nfunction random()  public view returns(uint){\n    return uint(keccak256(abi.encodePacked(block.difficulty, block.timestamp, user.length)));\n        }\nfunction winner() public payable{\n    uint d=random();\n    uint p=d%user.length;\n    user[p];\n    // payable(cp).transfer(getBalance());\n    user=new address [](0);\n}\n\n\nfunction getuser() public view returns(address [] memory){\n    return user;\n  \n}\n\n\n\n\n\n\n}\n",
  "sourcePath": "C:\\Users\\John\\Documents\\anjum\\contracts\\Lottery.sol",
  "compiler": {
    "name": "solc",
    "version": "0.5.16+commit.9c3226ce.Emscripten.clang"
  },
  "schemaVersion": "3.4.11",
  "updatedAt": "2023-01-08T06:23:36.475Z",
  "networkType": "ethereum",
  "devdoc": {
    "methods": {}
  },
  "userdoc": {
    "methods": {}
  }
}