{
  "contractName": "Calculator",
  "abi": [
    {
      "inputs": [
        {
          "internalType": "string",
          "name": "question",
          "type": "string"
        },
        {
          "internalType": "string",
          "name": "home",
          "type": "string"
        },
        {
          "internalType": "string",
          "name": "phone",
          "type": "string"
        }
      ],
      "name": "sendproblem",
      "outputs": [],
      "stateMutability": "nonpayable",
      "type": "function"
    },
    {
      "inputs": [],
      "name": "fetchall",
      "outputs": [
        {
          "components": [
            {
              "internalType": "string",
              "name": "question",
              "type": "string"
            },
            {
              "internalType": "string",
              "name": "ans",
              "type": "string"
            },
            {
              "internalType": "address",
              "name": "uaddress",
              "type": "address"
            },
            {
              "internalType": "string",
              "name": "home",
              "type": "string"
            },
            {
              "internalType": "string",
              "name": "phone",
              "type": "string"
            }
          ],
          "internalType": "struct Calculator.problem[]",
          "name": "",
          "type": "tuple[]"
        }
      ],
      "stateMutability": "view",
      "type": "function",
      "constant": true
    },
    {
      "inputs": [
        {
          "internalType": "uint256",
          "name": "im",
          "type": "uint256"
        }
      ],
      "name": "fetone",
      "outputs": [
        {
          "components": [
            {
              "internalType": "string",
              "name": "question",
              "type": "string"
            },
            {
              "internalType": "string",
              "name": "ans",
              "type": "string"
            },
            {
              "internalType": "address",
              "name": "uaddress",
              "type": "address"
            },
            {
              "internalType": "string",
              "name": "home",
              "type": "string"
            },
            {
              "internalType": "string",
              "name": "phone",
              "type": "string"
            }
          ],
          "internalType": "struct Calculator.problem",
          "name": "",
          "type": "tuple"
        }
      ],
      "stateMutability": "view",
      "type": "function",
      "constant": true
    },
    {
      "inputs": [
        {
          "internalType": "uint256",
          "name": "idg",
          "type": "uint256"
        },
        {
          "internalType": "string",
          "name": "question",
          "type": "string"
        }
      ],
      "name": "ansproblem",
      "outputs": [],
      "stateMutability": "nonpayable",
      "type": "function"
    }
  ],
  "bytecode": "0x608060405234801561001057600080fd5b5061130a806100206000396000f3fe608060405234801561001057600080fd5b506004361061004c5760003560e01c80631228d0ad14610051578063723dc06e146100815780637e0aff571461009d57806394726389146100bb575b600080fd5b61006b60048036038101906100669190610914565b6100d7565b6040516100789190610a9d565b60405180910390f35b61009b60048036038101906100969190610bf4565b6103b1565b005b6100a561054b565b6040516100b29190610de8565b60405180910390f35b6100d560048036038101906100d09190610e0a565b610848565b005b6100df610885565b600182815481106100f3576100f2610e66565b5b90600052602060002090600502016040518060a001604052908160008201805461011c90610ec4565b80601f016020809104026020016040519081016040528092919081815260200182805461014890610ec4565b80156101955780601f1061016a57610100808354040283529160200191610195565b820191906000526020600020905b81548152906001019060200180831161017857829003601f168201915b505050505081526020016001820180546101ae90610ec4565b80601f01602080910402602001604051908101604052809291908181526020018280546101da90610ec4565b80156102275780601f106101fc57610100808354040283529160200191610227565b820191906000526020600020905b81548152906001019060200180831161020a57829003601f168201915b505050505081526020016002820160009054906101000a900473ffffffffffffffffffffffffffffffffffffffff1673ffffffffffffffffffffffffffffffffffffffff1673ffffffffffffffffffffffffffffffffffffffff16815260200160038201805461029690610ec4565b80601f01602080910402602001604051908101604052809291908181526020018280546102c290610ec4565b801561030f5780601f106102e45761010080835404028352916020019161030f565b820191906000526020600020905b8154815290600101906020018083116102f257829003601f168201915b5050505050815260200160048201805461032890610ec4565b80601f016020809104026020016040519081016040528092919081815260200182805461035490610ec4565b80156103a15780601f10610376576101008083540402835291602001916103a1565b820191906000526020600020905b81548152906001019060200180831161038457829003601f168201915b5050505050815250509050919050565b600080600060025481526020019081526020016000209050838160000190816103da91906110a1565b50338160020160006101000a81548173ffffffffffffffffffffffffffffffffffffffff021916908373ffffffffffffffffffffffffffffffffffffffff1602179055508281600301908161042f91906110a1565b508181600401908161044191906110a1565b506001819080600181540180825580915050600190039060005260206000209060050201600090919091909150600082018160000190816104829190611189565b50600182018160010190816104979190611189565b506002820160009054906101000a900473ffffffffffffffffffffffffffffffffffffffff168160020160006101000a81548173ffffffffffffffffffffffffffffffffffffffff021916908373ffffffffffffffffffffffffffffffffffffffff160217905550600382018160030190816105139190611189565b50600482018160040190816105289190611189565b50505060016002600082825461053e91906112a0565b9250508190555050505050565b60606001805480602002602001604051908101604052809291908181526020016000905b8282101561083f57838290600052602060002090600502016040518060a00160405290816000820180546105a290610ec4565b80601f01602080910402602001604051908101604052809291908181526020018280546105ce90610ec4565b801561061b5780601f106105f05761010080835404028352916020019161061b565b820191906000526020600020905b8154815290600101906020018083116105fe57829003601f168201915b5050505050815260200160018201805461063490610ec4565b80601f016020809104026020016040519081016040528092919081815260200182805461066090610ec4565b80156106ad5780601f10610682576101008083540402835291602001916106ad565b820191906000526020600020905b81548152906001019060200180831161069057829003601f168201915b505050505081526020016002820160009054906101000a900473ffffffffffffffffffffffffffffffffffffffff1673ffffffffffffffffffffffffffffffffffffffff1673ffffffffffffffffffffffffffffffffffffffff16815260200160038201805461071c90610ec4565b80601f016020809104026020016040519081016040528092919081815260200182805461074890610ec4565b80156107955780601f1061076a57610100808354040283529160200191610795565b820191906000526020600020905b81548152906001019060200180831161077857829003601f168201915b505050505081526020016004820180546107ae90610ec4565b80601f01602080910402602001604051908101604052809291908181526020018280546107da90610ec4565b80156108275780601f106107fc57610100808354040283529160200191610827565b820191906000526020600020905b81548152906001019060200180831161080a57829003601f168201915b5050505050815250508152602001906001019061056f565b50505050905090565b60006001838154811061085e5761085d610e66565b5b906000526020600020906005020190508181600101908161087f91906110a1565b50505050565b6040518060a001604052806060815260200160608152602001600073ffffffffffffffffffffffffffffffffffffffff16815260200160608152602001606081525090565b6000604051905090565b600080fd5b600080fd5b6000819050919050565b6108f1816108de565b81146108fc57600080fd5b50565b60008135905061090e816108e8565b92915050565b60006020828403121561092a576109296108d4565b5b6000610938848285016108ff565b91505092915050565b600081519050919050565b600082825260208201905092915050565b60005b8381101561097b578082015181840152602081019050610960565b60008484015250505050565b6000601f19601f8301169050919050565b60006109a382610941565b6109ad818561094c565b93506109bd81856020860161095d565b6109c681610987565b840191505092915050565b600073ffffffffffffffffffffffffffffffffffffffff82169050919050565b60006109fc826109d1565b9050919050565b610a0c816109f1565b82525050565b600060a0830160008301518482036000860152610a2f8282610998565b91505060208301518482036020860152610a498282610998565b9150506040830151610a5e6040860182610a03565b5060608301518482036060860152610a768282610998565b91505060808301518482036080860152610a908282610998565b9150508091505092915050565b60006020820190508181036000830152610ab78184610a12565b905092915050565b600080fd5b600080fd5b7f4e487b7100000000000000000000000000000000000000000000000000000000600052604160045260246000fd5b610b0182610987565b810181811067ffffffffffffffff82111715610b2057610b1f610ac9565b5b80604052505050565b6000610b336108ca565b9050610b3f8282610af8565b919050565b600067ffffffffffffffff821115610b5f57610b5e610ac9565b5b610b6882610987565b9050602081019050919050565b82818337600083830152505050565b6000610b97610b9284610b44565b610b29565b905082815260208101848484011115610bb357610bb2610ac4565b5b610bbe848285610b75565b509392505050565b600082601f830112610bdb57610bda610abf565b5b8135610beb848260208601610b84565b91505092915050565b600080600060608486031215610c0d57610c0c6108d4565b5b600084013567ffffffffffffffff811115610c2b57610c2a6108d9565b5b610c3786828701610bc6565b935050602084013567ffffffffffffffff811115610c5857610c576108d9565b5b610c6486828701610bc6565b925050604084013567ffffffffffffffff811115610c8557610c846108d9565b5b610c9186828701610bc6565b9150509250925092565b600081519050919050565b600082825260208201905092915050565b6000819050602082019050919050565b600060a0830160008301518482036000860152610ce48282610998565b91505060208301518482036020860152610cfe8282610998565b9150506040830151610d136040860182610a03565b5060608301518482036060860152610d2b8282610998565b91505060808301518482036080860152610d458282610998565b9150508091505092915050565b6000610d5e8383610cc7565b905092915050565b6000602082019050919050565b6000610d7e82610c9b565b610d888185610ca6565b935083602082028501610d9a85610cb7565b8060005b85811015610dd65784840389528151610db78582610d52565b9450610dc283610d66565b925060208a01995050600181019050610d9e565b50829750879550505050505092915050565b60006020820190508181036000830152610e028184610d73565b905092915050565b60008060408385031215610e2157610e206108d4565b5b6000610e2f858286016108ff565b925050602083013567ffffffffffffffff811115610e5057610e4f6108d9565b5b610e5c85828601610bc6565b9150509250929050565b7f4e487b7100000000000000000000000000000000000000000000000000000000600052603260045260246000fd5b7f4e487b7100000000000000000000000000000000000000000000000000000000600052602260045260246000fd5b60006002820490506001821680610edc57607f821691505b602082108103610eef57610eee610e95565b5b50919050565b60008190508160005260206000209050919050565b60006020601f8301049050919050565b600082821b905092915050565b600060088302610f577fffffffffffffffffffffffffffffffffffffffffffffffffffffffffffffffff82610f1a565b610f618683610f1a565b95508019841693508086168417925050509392505050565b6000819050919050565b6000610f9e610f99610f94846108de565b610f79565b6108de565b9050919050565b6000819050919050565b610fb883610f83565b610fcc610fc482610fa5565b848454610f27565b825550505050565b600090565b610fe1610fd4565b610fec818484610faf565b505050565b5b8181101561101057611005600082610fd9565b600181019050610ff2565b5050565b601f8211156110555761102681610ef5565b61102f84610f0a565b8101602085101561103e578190505b61105261104a85610f0a565b830182610ff1565b50505b505050565b600082821c905092915050565b60006110786000198460080261105a565b1980831691505092915050565b60006110918383611067565b9150826002028217905092915050565b6110aa82610941565b67ffffffffffffffff8111156110c3576110c2610ac9565b5b6110cd8254610ec4565b6110d8828285611014565b600060209050601f83116001811461110b57600084156110f9578287015190505b6111038582611085565b86555061116b565b601f19841661111986610ef5565b60005b828110156111415784890151825560018201915060208501945060208101905061111c565b8683101561115e578489015161115a601f891682611067565b8355505b6001600288020188555050505b505050505050565b60008154905061118281610ec4565b9050919050565b81810361119757505061126f565b6111a082611173565b67ffffffffffffffff8111156111b9576111b8610ac9565b5b6111c38254610ec4565b6111ce828285611014565b6000601f8311600181146111fd57600084156111eb578287015490505b6111f58582611085565b865550611268565b601f19841661120b87610ef5565b965061121686610ef5565b60005b8281101561123e57848901548255600182019150600185019450602081019050611219565b8683101561125b5784890154611257601f891682611067565b8355505b6001600288020188555050505b5050505050505b565b7f4e487b7100000000000000000000000000000000000000000000000000000000600052601160045260246000fd5b60006112ab826108de565b91506112b6836108de565b92508282019050808211156112ce576112cd611271565b5b9291505056fea2646970667358221220470fe4596197da33a81e4a81e3f23f0357629b1a356175a7f8e2078abea0f48164736f6c63430008110033",
  "immutableReferences": {},
  "source": "// SPDX-License-Identifier: MIT\r\npragma solidity ^0.8.0;\r\n\r\ncontract Calculator {\r\n\r\n\r\n    struct problem {\r\n        string question;\r\n        string ans;\r\n        address uaddress;\r\n        string home;\r\n        string phone;\r\n    }\r\n\r\n    mapping(uint=>problem)pb;\r\n    problem[] kl;\r\nuint id;\r\nfunction sendproblem(string memory question,string memory home,string memory phone)public{\r\nproblem storage p=pb[id];\r\np.question=question;\r\np.uaddress=msg.sender;\r\np.home=home;\r\np.phone=phone;\r\nkl.push(p);\r\nid+=1;\r\n}\r\n\r\nfunction fetchall() public view returns(problem[] memory){\r\n    return kl;\r\n}\r\nfunction fetone(uint im) public view returns(problem memory){\r\n    \r\n    return kl[im];\r\n}\r\nfunction ansproblem(uint idg,string memory question) public {\r\nproblem storage p=kl[idg];\r\np.ans=question;\r\n\r\n\r\n}\r\n\r\n\r\n\r\n}   ",
  "sourcePath": "C:\\Users\\John\\Documents\\mano\\contracts\\Calculator.sol",
  "compiler": {
    "name": "solc",
    "version": "0.8.17+commit.8df45f5f.Emscripten.clang"
  },
  "schemaVersion": "3.4.11",
  "updatedAt": "2023-02-16T06:39:29.668Z",
  "networkType": "ethereum",
  "devdoc": {
    "kind": "dev",
    "methods": {},
    "version": 1
  },
  "userdoc": {
    "kind": "user",
    "methods": {},
    "version": 1
  }
}