{
  "contractName": "Fund",
  "abi": [
    {
      "inputs": [],
      "stateMutability": "nonpayable",
      "type": "constructor"
    },
    {
      "inputs": [],
      "name": "manager",
      "outputs": [
        {
          "internalType": "address",
          "name": "",
          "type": "address"
        }
      ],
      "stateMutability": "view",
      "type": "function"
    },
    {
      "inputs": [
        {
          "internalType": "uint256",
          "name": "",
          "type": "uint256"
        }
      ],
      "name": "user",
      "outputs": [
        {
          "internalType": "address payable",
          "name": "",
          "type": "address"
        }
      ],
      "stateMutability": "view",
      "type": "function"
    },
    {
      "inputs": [],
      "name": "getBalance",
      "outputs": [
        {
          "internalType": "uint256",
          "name": "",
          "type": "uint256"
        }
      ],
      "stateMutability": "view",
      "type": "function"
    },
    {
      "inputs": [],
      "name": "sendMoney",
      "outputs": [],
      "stateMutability": "payable",
      "type": "function"
    }
  ],
  "bytecode": "0x6080604052336000806101000a81548173ffffffffffffffffffffffffffffffffffffffff021916908373ffffffffffffffffffffffffffffffffffffffff16021790555034801561005057600080fd5b50610311806100606000396000f3fe60806040526004361061003f5760003560e01c806312065fe014610044578063481c6a751461006f578063553275be1461009a578063cbedbf5a146100d7575b600080fd5b34801561005057600080fd5b506100596100e1565b60405161006691906101ca565b60405180910390f35b34801561007b57600080fd5b506100846100e9565b6040516100919190610226565b60405180910390f35b3480156100a657600080fd5b506100c160048036038101906100bc9190610272565b61010d565b6040516100ce91906102c0565b60405180910390f35b6100df61014c565b005b600047905090565b60008054906101000a900473ffffffffffffffffffffffffffffffffffffffff1681565b6001818154811061011d57600080fd5b906000526020600020016000915054906101000a900473ffffffffffffffffffffffffffffffffffffffff1681565b6001339080600181540180825580915050600190039060005260206000200160009091909190916101000a81548173ffffffffffffffffffffffffffffffffffffffff021916908373ffffffffffffffffffffffffffffffffffffffff160217905550565b6000819050919050565b6101c4816101b1565b82525050565b60006020820190506101df60008301846101bb565b92915050565b600073ffffffffffffffffffffffffffffffffffffffff82169050919050565b6000610210826101e5565b9050919050565b61022081610205565b82525050565b600060208201905061023b6000830184610217565b92915050565b600080fd5b61024f816101b1565b811461025a57600080fd5b50565b60008135905061026c81610246565b92915050565b60006020828403121561028857610287610241565b5b60006102968482850161025d565b91505092915050565b60006102aa826101e5565b9050919050565b6102ba8161029f565b82525050565b60006020820190506102d560008301846102b1565b9291505056fea2646970667358221220fe1c3d239262046dde213fa5488338d69352d944cad27062c65050650aa98a4064736f6c63430008110033",
  "immutableReferences": {},
  "source": "// SPDX-License-Identifier: MIT\npragma solidity >=0.4.22 <0.9.0;\n\ncontract Fund {\n  address public manager=msg.sender;\n\n  address payable[] public user;\n\n  constructor(){\n  }\n function getBalance() public view returns(uint){\n   \n    return address(this).balance;\n  \n}\n function sendMoney() public payable{\n   \n    user.push(payable(msg.sender));\n  \n}\n}\n",
  "sourcePath": "C:\\Users\\John\\Documents\\anjum\\contracts\\Fund.sol",
  "compiler": {
    "name": "solc",
    "version": "0.8.17+commit.8df45f5f.Emscripten.clang"
  },
  "schemaVersion": "3.4.11",
  "updatedAt": "2023-01-08T13:41:50.141Z",
  "devdoc": {
    "kind": "dev",
    "methods": {},
    "version": 1
  },
  "userdoc": {
    "kind": "user",
    "methods": {},
    "version": 1
  }
}